:020000041000EA
:1000000000B5324B212058609868022188439860DF
:10001000D860186158612E4B002199600221596106
:100020000121F02299502B49196001219960352056
:1000300000F044F80222904214D00621196600F024
:1000400034F8196E01211966002018661A6600F04E
:100050002CF8196E196E196E052000F02FF8012189
:100060000842F9D1002199601B49196000215960AB
:100070001A491B48016001219960EB211966A021F2
:10008000196600F012F800219960164914480160C1
:100090000121996001BC002800D000471248134993
:1000A000086003C880F30888084703B5996A0420EC
:1000B0000142FBD001200142F8D103BD02B5186610
:1000C0001866FFF7F2FF186E186E02BD00000240BE
:1000D000000000180000070000035F00212200005C
:1000E000F4000018222000A00001001008ED00E03C
:1000F00000000000000000000000000074B24E7A12
:1001000000200420F7010010C3010010C5010010F9
:10011000C1010010C1010010C1010010C101001097
:10012000C1010010C1010010C1010010C701001081
:10013000C1010010C1010010C9010010CB01001065
:10014000CD010010CD010010CD010010CD01001037
:10015000CD010010CD010010CD010010CD01001027
:10016000CD010010CD010010CD010010CD01001017
:10017000CD010010CD010010CD010010CD01001007
:10018000CD010010CD010010CD010010CD010010F7
:10019000CD010010CD010010CD010010CD010010E7
:1001A000CD010010CD010010CD010010CD010010D7
:1001B000CD010010CD010010CD010010CD010010C7
:1001C00000BE00BE00BE00BE00BE00BEEFF3058054
:1001D000103800BEF2EB887198650010C065001001
:1001E0003802001090A31AE71E481F49086006C88D
:1001F00081F3088810471D480068002801D019487D
:10020000F3E70DA40ECC002902D000F012F8F9E7B4
:100210001749184A002000E001C19142FCD116495B
:100220008847164988471649884700BEFDE701C937
:1002300001C29A42FBD37047C0650010C000002085
:10024000980A0020986F001000000420000004208D
:10025000986F00100010042000100420000000001F
:10026000704700000000000008ED00E0000000D032
:10027000980A0020D40E00203D4F001021030010EA
:10028000354F0010F8B5C0460448054B10B5834201
:1002900003D0044B002B00D0984710BD980A0020D3
:1002A000980A00200000000006480749091A891032
:1002B000CB0F591810B5491003D0044B002B00D0B8
:1002C000984710BD980A0020980A002000000000FE
:1002D00010B5074C2378002B09D1FFF7D5FF054B4C
:1002E000002B02D0044800E000BF0123237010BDA2
:1002F000180C002000000000F85E0010054B10B53F
:10030000002B03D00449054800E000BFFFF7CCFFF5
:1003100010BDC046000000001C0C0020F85E00105C
:1003200030B5374CA54404F00BFF192000F07AFAE1
:10033000D02380221B0692045A6200F02FF9314923
:10034000314805F057F80321042000F037FA032163
:10035000052000F033FA00220121042000F048FAC1
:1003600000220121052000F043FA00F043F90021AA
:10037000082202A802F07EFA6A467F2302A853727E
:100380007C3BD37200F02AF98022002192000CA855
:1003900002F070FA04AC02A90CA800F057F9220090
:1003A0001A4B23CB23C223CB23C2002503CB03C28A
:1003B0002AB208CC05210CA8083500F095F9402D8B
:1003C000F6D102A90CA800F041F900F09DF86A46A8
:1003D0000F4B03219380332301A89371D0258024F0
:1003E00000F0BEF82D06A404FA206C61400000F075
:1003F000ABFEFA20AC61400000F0A6FEF4E7C04678
:10040000CCFDFFFF801A060048020020F85E0010B5
:1004100011220000F8B54746CE46394B80B5002280
:100420009B5E070098460D2B49D02021354A9369E1
:100430001942FCD10D23136043460A2B57D02021CB
:10044000304A93691942FCD10A2338001360033300
:1004500000262C4C2025994605F09EFBB0420CD975
:10046000BA5D904525D0A3691D42FCD122603800B9
:10047000013605F091FBB042F2D843460D2B2ED049
:100480002021204A93691942FCD10D231360434671
:100490000A2B1CD020211B4A93691942FCD10A2344
:1004A000FA201360800000F04FFE0CBC9046994685
:1004B000F8BDA3691D42FCD14B462360D3E7202140
:1004C000104A93691942FCD10D231360ADE7202136
:1004D0000C4A93691942FCD10D231360DAE72021FD
:1004E000084A93691942FCD10D231360C8E7202103
:1004F000044A93691942FCD10D2313609FE7C0465B
:10050000CC0C00200040034010B50F4C9AB00F48AF
:10051000FFF780FF200000F017FE0D48FFF77AFF7D
:10052000FA20800000F010FE0A4B0B4A1B6812688C
:100530000A4901A804F0B6FC01A8FFF76BFF2000F0
:1005400000F002FE1AB010BD88130000905F00108A
:10055000985F0010980100209C010020A45F00100B
:10056000F0B5002910DD20240D270A4B0A4A002689
:100570009E5F41180578AE4207D093691C42FCD1BA
:10058000013015608842F5D1F0BD93691C42FCD161
:100590001760F2E7CC0C002000400340E12110B5C9
:1005A0000C4C4902200000F087FF0221002000F0DF
:1005B00005F90221012000F001F9C022236B12028B
:1005C0001340054A0821136020000023012200F097
:1005D000FFFF10BD004003403050034043780178D6
:1005E000C278591A83780131D31A01334B434360DF
:1005F0007047C046F0B54746CE4680B58BB003ACD9
:100600002200104B802723CB23C223CB23C21B887D
:100610000026138026236B4499460B4B02AD984667
:1006200023782F706B702A00009602233C214046ED
:10063000013404F061FF4C45F2D10BB00CBC904684
:100640009946F0BDD45F001048020020F0B557462F
:100650004E464546DE462123E0B587B004AE3370F2
:100660000B78834673704B788A46B3702223F370FD
:100670008B7800243371CB781A4F7371802399469D
:100680000023984603AD335D4A466B7043462A709B
:100690003C2100932A0002233800013404F02CFF8F
:1006A000062CF0D153465E68751C280002F0C4F891
:1006B00040230400037032005946013002F0E0F894
:1006C0004346220000933C212B00380004F014FF25
:1006D000200002F0C3F807B03CBC90469946A24601
:1006E000AB46F0BD48020020F0B5DE4657464E4608
:1006F0004546E0B583B0782944DC182A42DC1D78F1
:10070000002D3FD00724D6173440A418E410E4018C
:1007100001940133782930DC0326264A525D3240A9
:10072000022A00D1203DEAB21600413E192E30D8EF
:10073000FF221540403D204AED00525D90461E4A82
:1007400094466544EC796A78A3469246AA782F7954
:100750009146EA786E799446AA79019C0D1944462F
:100760004455544645196C704C46AA71AC705A46B3
:1007700064462F71EC706E71EA711D78083109B210
:10078000002DC6D103B03CBC90469946A246AB466C
:10079000F0BD303A092A03D8FF221540153DCAE7BB
:1007A00000240022002693460027A446A146A24624
:1007B000A046D2E795640010F05F001010B5402409
:1007C000084A83009A181268C0005440C022224090
:1007D000054CA44663441A60044B9C466044416047
:1007E00010BDC04604C0014004D00140004001409B
:1007F0000B4B80009C46604400290ED00C2308213E
:10080000002A00D019008022036852015940944602
:100810000C2360440B400360704704230021EFE782
:1008200004C001400123D02283404021120693627C
:100830009361094A83009A181268C0005140C0228F
:100840000A4006498C4663441A60054B9C460523C2
:10085000604443607047C04604C0014004D001407A
:10086000004001400FB400B5084883B004F0B8FC64
:10087000049B002B07D005A91800019104F026FB6A
:10088000034804F0ADFC012004F038FB18610010AF
:1008900028610010F8B5EFF3108772B60D4E33687B
:1008A000002BFCD0BFF35F8F0725CB08C0180123B6
:1008B0000D40AB401D000478254007D12343037051
:1008C000BFF35F8F356087F31088F8BD1000FFF726
:1008D000C9FFC0462C0100D0044A1078431CDBB28B
:1008E000172B00D9102313707047C046A0010020B9
:1008F0000021044B044ABFF35F8F02C39342FAD135
:100900007047C046000100D0800100D0054B064A68
:100910001360064A136053609360D36013615361A0
:10092000936170478080808000E400E004E400E090
:100930001F2318401E3B8340002903D18022044915
:100940008B507047C021024A490053501360F8E7AA
:1009500000E100E070B50D00EFF3108672B60F4AAB
:100960001368002BFCD0BFF35F8F0D4B10309B68DA
:1009700084001B590B4A934203D09D4201D000F0E2
:10098000F1FF074B9B681D51BFF35F8FBFF35F8F74
:100990000022024B1A6086F3108870BD240100D03B
:1009A00000ED00E0CD010010F0B54546DE465746AB
:1009B0004E46E0B50D0083B0EFF3108972B65D4A84
:1009C0001368002BFCD0BFF35F8F5B4B9A6803006A
:1009D00010339E009459594A904694423BD0AC4201
:1009E00058D0574FE21B2F2A35D8564A93461268E3
:1009F0009446012261469246824011401F221040D7
:100A0000524682409246019180225146584681507A
:100A1000BFF35F8FEFF305829346002A2ED10123A7
:100A2000220006219A43936851569D420AD16BE0F9
:100A30004B005B1806219B00FB18986859568542AD
:100A40002AD01A000029F3DA019B002B1BD1802346
:100A500051463C4AD150384B9B689C51BFF35F8F45
:100A6000BFF35F8F0022334B1A6089F3108803B005
:100A70003CBC90469946A246AB46F0BD9342CED0D0
:100A800000F070FFCBE7C02251462E4B5200995028
:100A90001960E0E71400DEE7002924DB4A00501863
:100AA00080003D188046A8689860E879D8710620D3
:100AB00028569871A8797F2813D8AD88F81A6D0543
:100AC0002D1545444019E0250005400D2D02284311
:100AD000988052181C4B9200BF181A781970BA717E
:100AE000B2E71A48F4E75946002915D1FF31917150
:100AF0001749918014490A789A71164ADB1B5B41A9
:100B00005A43120D0A709FE713000029C6DA5A46AD
:100B1000002A01D14446EDE70F4A1049D21A083A9B
:100B20005002400D014399800D4952080A43DA8072
:100B30008AE7C046240100D000ED00E0CD0100109E
:100B4000A401002000E100E0C80C002001BD00006D
:100B500001BDFFFFAAAA0000DE01002000F0FFFF98
:100B600000F8FFFFF0B501240443EFF30581EFF334
:100B7000108672B6214A1368002BFCD0BFF35F8F3A
:100B80001F4B204A0500ED1A6D416A43120D1E4DA0
:100B90008900AF6852B27F58A7421CD0062159562F
:100BA000914226D012215956914224D01E215956E5
:100BB000914214D02A2159560324914210D0134B4C
:100BC00019781A708171BFF35F8F00220B4B1A6086
:100BD00086F31088F0BDAB680D4C5C50EFE7022443
:100BE0006100091989005B18FF21997109499980F1
:100BF000E5E70024F4E70124F2E7C046240100D031
:100C0000A4010020AAAA000000ED00E0C80C00200A
:100C1000CD01001001BDFFFF024B9C4661448900DD
:100C20000160704740000034F0B5C646164D174FBE
:100C300000B5BD4224D2FF232C0098460DE0FFF7FB
:100C40004BFE01002800FFF7E7FF4346A380BFF3F8
:100C50005F8F34003500BE4212D22600236808366A
:100C6000002BECD1FFF738FE01002800FFF7D4FF7E
:100C700043462371BFF35F8F34003500BE42ECD38F
:100C800004BC9046F0BDC046900A0020980A00209F
:100C90000A4B1968EFF3108072B60A68002AFCD07C
:100CA000BFF35F8F1B68BFF35F8F00221A6080F372
:100CB000108840BF002000217047C046C00C0020B3
:100CC000F0B5DE4657464E464546E0B585B0EFF3F3
:100CD0000583032213409A0011000392B64A52582A
:100CE000904601229A409246B44B1A605346B4484B
:100CF0004363434608229B5E9946002B00DB94E049
:100D000043469B881BB2002B58DB43461A69EFF31E
:100D1000108172B61368002BFCD0BFF35F8F43467F
:100D20009B8842461BB29C4601235B429380136919
:100D3000BFF35F8F00221A6081F310886346002B97
:100D40003CDB43465F6908234344994663465E00A3
:100D50006644F600B346BB445B469868D968434690
:100D600008229A5E00900191002A00DAC3E0530045
:100D70009B18DB00FB189C68DD68001BA94100295B
:100D80000CDAB8E053009B18DB00FB1800980199BF
:100D90009C68DD68001BA941002904DB1E000023BC
:100DA000F25E002AEEDA634633805B4600215B5E2A
:100DB0009C465B461A806346002BC7DA43469B7904
:100DC000002B00D099E043460820185E002824DB61
:100DD00042465269430094461B18DB0063449C68FA
:100DE000DD68631C00D1B8E07548754B84469A6A8B
:100DF000039BA01A634419001B699B1A984200D2F6
:100E00000C616F4800F002FB241A8D41002D04DCB8
:100E100000D06BE7002C00D168E740BF05B03CBCB8
:100E200090469946A246AB46F0BD424652695B00E9
:100E300093464B44DB009B445B469E68DF6800F0B2
:100E4000E5FA801BB941002900DA59E7002F00DAE2
:100E500087E05A465B4654691B695A4A934200D15F
:100E60009BE041465A460820085E52880004210053
:100E70001043984704000D0023002B4371D0002D30
:100E800000DB92E0361BAF4134003D005B469C60C6
:100E9000DD600021595E002900DA31E743465B69D5
:100EA00022009C462B0048004018C0006044866821
:100EB000C768921BBB41002B00DA21E74346664618
:100EC00019810200009401950CE07B00DB19DB0026
:100ED000F318009801999C68DD68001BA94100295E
:100EE00004DB1A000023D75E002FEEDA5B461F807A
:100EF0004B46138004E74E4655E700234246937164
:100F00004346464608229A5E0836531C00D184E7C1
:100F1000434647465D69944603E01E002200631C79
:100F200018D053009B18DB00EB1800215C5E598839
:100F300009B20029F1DA01204042C1179860D96056
:100F40009445EBD034803989944619803A81220047
:100F5000631CE6D1B846604638E76B1C00D043E717
:100F60004FE75B4642461B8813811269EFF31081FD
:100F700072B61368002BFCD0BFF35F8F43465A460E
:100F80005B88138043464A465A801B69BFF35F8FD4
:100F900000221A6081F31088B2E620002369984786
:100FA0000028DED06568246866E7054800F02EFA60
:100FB00024184D416AE7C046AC0C00203C70054047
:100FC00000400540C10C001070B52E4C2569002D65
:100FD00004D00A212C48FFF71FFE70BD2B4E0321C1
:100FE000300000F009FAE660FFF776FC284B032199
:100FF0009C4610236381D02321701B061B680122AD
:1010000063700F2360448000206102206380636965
:1010100052422281A2801A8002321A8647321D83F0
:1010200098521832995218320131995218320131BE
:1010300099521832013199521832013199520835BA
:1010400018329D5202311832995218320131995298
:101050001832013199521832013199521832013146
:1010600099521832013199520A4B0B49DC60013018
:101070003562FFF76FFC01210320FFF759FC074B96
:101080001D60A6E7EC010020C00C002000400540D8
:1010900040000034AC0C0020C10C0010386005404A
:1010A000F0B501000469EFF3108672B620680028DD
:1010B000FCD0BFF35F8F02200D5E48696C00844650
:1010C0006419E4006444002D01DB2088488008692D
:1010D000BFF35F8F0027076086F31088002D2DDB9C
:1010E000A260E36063880598013320615B04069881
:1010F0005B0C60611A1E1ED02804104363800A69CD
:10110000EFF3108672B61368002BFCD0BFF35F8F2D
:101110008B8823808D800B69BFF35F8F00221A605C
:1011200086F310880B7801329A40CB6805498C46CB
:1011300063441A60F0BD01220123DDE70120404233
:10114000F8E7C0463C200000F0B5C64600B582B0C6
:10115000060000F065F9FA2204000D009200002359
:101160003000002101F004FB24184D41002D4EDB1E
:1011700006267642F71736196F41AF424ED9002640
:10118000002700F04DF932003B00121A8B41002B72
:1011900038DD00F045F932003B00121A8B41002B7C
:1011A00012DB00230193204B320000931F483B00C9
:1011B000FFF776FF002807DA2000290000F06CF91D
:1011C00002B004BC9046F0BDB0460026BC46184AAA
:1011D000184F7B6A9C4504D8B96A8845ECD99C4570
:1011E000EAD11168EFF3108072B60B68002BFCD0C7
:1011F000BFF35F8F1368BFF35F8F1E6080F31088AB
:1012000020BFE6E7002BD7D1002AC2D1D4E70124C2
:1012100007266442084D7642074FB2E7AF42B0D18D
:10122000A642ACD8ADE7C046910C0010EC010020FE
:10123000C00C002000400540FFFFFF7FF8B5CE4600
:101240004746040080B50D00EFF305830F00002B27
:1012500010D0654A0020536A8B4207D3926A01304E
:10126000A24203D25B1B581E8341D8B20CBC9046ED
:101270009946F8BD5D4EA0463378F26804339B0072
:10128000906A9B58221A1B1A9A420ED320BF564AC4
:101290000020536A8B42E9D3926A01309045E5D928
:1012A0005B1B581E8341D8B2E0E700F0B9F822007A
:1012B0002B00121A8B41002B00DA75E03269EFF334
:1012C000108972B61368002BFCD0BFF35F8F022326
:1012D000F15E73694A009C465218D20062440029AC
:1012E00001DB1388738033699C46BFF35F8F002353
:1012F0006046036089F31088002955DB53615388E9
:101300003B4801335B045B0C10619460D560181E90
:1013100001D10120012353800B040343306984462B
:10132000EFF3108972B6604600680028FBD0BFF367
:101330005F8FB0881080B1803269BFF35F8F00216A
:10134000116089F310882B4832780131844691402E
:10135000F26862441160244A516AB9422DD3926AFC
:10136000904528D87289191491421DDA4A00521802
:101370007169D2008C46316962448C46EFF310806B
:1013800072B6614609680029FBD0BFF35F8F5188B0
:101390001B0489B21B0C994211D03369BFF35F8FD4
:1013A00000221A6080F310880F4A0020536ABB4263
:1013B00000D25BE770E7B942D4D120BFD2E78023E7
:1013C0001B021943518001233269B371BFF35F8F50
:1013D0000021116080F31088064932788C469340D2
:1013E000F26862441360DFE700400540EC01002032
:1013F000910C00103C20000010B5024A0248FFF793
:1014000049FA10BD2C610010700C00200200416AE6
:1014100000E01900906A536A9942FAD17047C046B9
:10142000044A516A00E01900906A536A8B42FAD16B
:101430007047C04600400540164A70B5546A00E047
:101440001C00956A536AA342FAD12A00230080182F
:10145000594105000E008C4216D813D032000D4CB5
:10146000636A9342FCD39A420BD10A4B2800996AD3
:10147000A94203D305E0996A814202D2596A914296
:10148000F9D070BD8242E9D9012201256D42EE17E3
:101490005242E4E700400540064A536A9942FCD8AC
:1014A00007D1044B02E05A6A914202D19A6A9042F3
:1014B000F9D8704700400540F8B5040006200D003B
:1014C00000F0AEF903000020002B63D0344B354907
:1014D000E3185A1E93418022120494465B42324A1A
:1014E0009B0563441360314A136018000A689043F7
:1014F000FBD12B4B8021E3185A4253412C4A5B000D
:1015000049000620995200F08BF92900C00000F034
:101510002FFB0130C30909D0264A93423BD840062D
:10152000800E9F011A003F18030001E040270122AE
:101530006262A362266BF30715D51F4B1F4AE3189F
:101540001A60656AA36AAD010620ED1800F068F91B
:101550001B4900F00DFBAD020100280000F008FB64
:101560000021FFF769FFE36A164B0620E518002308
:101570002B60266300F054F93900800000F0F8FA7F
:101580007022E36A5A407E2313402B600B4B236387
:101590000323A364F8BD0C4F00230C4AC8E7C046E0
:1015A0000080FCBF08C0004000E0004000F00040A8
:1015B000CC0C0020FEFF00003030000001030000D2
:1015C0004E0E00002C100000C0FF3F00FFFF000087
:1015D0000539013A4901D200F8B50A430400002553
:1015E000002B05D0013B02215D425D410A43AD0065
:1015F000266B1543F30715D50F4B104AE3181A60F5
:10160000676AA36ABF010620FF1800F009F90C49B8
:1016100000F0AEFABF020100380000F0A9FA002184
:10162000FFF70AFFE26A074B55406E22E3182A4093
:101630001A602663F8BDC046303000000103000088
:101640004E0E00002C100000F8B54E464546DE4612
:101650005746E0B5884605000A991800170000F0C3
:1016600087FA0A9B6C001E02314B64199C46A40049
:101670006444636881469E4200D966602B1FDBB2DA
:101680009A46C02352469B01E318012A2DD9802295
:1016900012011A60274BAD0059599B4600291BD1F6
:1016A00023687F017B40E0271F40802352465B0177
:1016B000E3181F60012A2DD9802380229B01E318A3
:1016C00012011A605B464A4666605A513CBC90461D
:1016D0009946A246AB46F8BD586900F049FA431C4A
:1016E0005800C0180338FDD2DAE74246012ACED1AD
:1016F00002321A60023AA3681A42FCD023687F01C2
:101700005F40E0231F4080230A4A5B019346E318B1
:101710001F60AD0042462168514003220A401A6012
:10172000012243469A40A3681A42FCD0C4E7C0464F
:1017300000800040740C0020F0B54F464646D64667
:10174000C0B51E00344B44009C462418A4006444D9
:1017500063680F001500FF2B02D880235B006360D5
:10176000031FDBB29A46C02352469B01E318012AAD
:1017700031D9802212011A60284B9946830098467D
:101780004B464246995800291CD123686D016B4095
:10179000E0251D40802352465B01E3181D60012AAD
:1017A0002ED9802380229B01E31812011A60802326
:1017B0005B00424663604B469E501CBC9046994677
:1017C000A246F0BD586900F0D3F9431C5800C01878
:1017D0000338FDD2D9E7012FCBD103221A60023A98
:1017E000A3681A42FCD023686D015D40E0230B4AD8
:1017F0001D4080239146820090465B01E3181D60E6
:101800000322216879400A401A600122BA40A36885
:101810001A42FCD0C5E7C04600800040740C00208E
:10182000014B8000C0587047740C0020F8B50400CC
:10183000204817001E000D0000F09AF90100380042
:1018400000F096F9069A3304120313432268002A23
:101850001FDB194A194EA218511E8A4180218901A5
:101860008C4652421649120362440A6015490A60C6
:10187000170031688F43FBD1134A2560A11821223C
:10188000A0600A602268002AFCDAE36008230B608B
:10189000F8BD3F2221680A40AA42DAD1A2681205A7
:1018A000120D8242D5D1EE21E268C9020A409A4265
:1018B000CFD1EDE7001BB7000040FDBF08C00040DE
:1018C00000E0004000F000400430000080239B0056
:1018D0001943014BD962704700800540142310B5AD
:1018E0000100188804331B88984710BD162310B5D3
:1018F0000100188802331B88984710BDF0B5C64612
:1019000000B5002916D01423040001259846182795
:10191000890046184346216818883B88984701C4C7
:10192000431E984140420540A642F3D1280004BC22
:101930009046F0BD0125F9E7AA23064A1B01136072
:101940002F230549D360054B19605368002BFCDA3F
:101950007047C0460040024000B0FA0000600240FC
:101960007047C04610B50148FEF77CFF506100107B
:1019700070B5074C074DAC4209D20322231D033535
:10198000ED1A9543ED1808CC9847AC42FBD170BDD9
:10199000B85E0010F45E0010054B064A06491A6056
:1019A000064A074B1A6010000B689843FBD170473A
:1019B00000E00040BFCDFBFE08C00040FE7F3C00C1
:1019C00000F00040044BDB6C002B03D18022034B62
:1019D000D2021A607047C046000011504C201150CE
:1019E000044A054B1A60054A1368DB018033FBD1BA
:1019F0007047C046FFFFFF0100F0004008C00040F4
:101A00004022034B9A675A671A67DA667047C046E6
:101A100000F0014010B5FEF76BFF10BD70B5044D2E
:101A2000044C2800A168C02200F02AFFA56070BD08
:101A30000000002000ED00E0002310B5294C82B02A
:101A4000A367FFF779FF0122274B1A60636C012B14
:101A5000FCD10322254B1A60224A936B012BFCD147
:101A600001330093224A043301212248FFF7DEFEAE
:101A70000523214A009301212048FFF7D7FE204B80
:101A8000002202210420FFF757FE1E4B00220121F5
:101A90000520FFF751FE1C4B002200210720FFF715
:101AA0004BFE194B002200210820FFF745FE802342
:101AB000DB0000930022144B00210920FFF7C4FD36
:101AC000104B002200210620FFF736FE0420FFF70E
:101AD000A7FE0E4900F04CF801000020FFF7F6FECB
:101AE00002B010BD008000403CB0004030B000406B
:101AF000002F685900800240008C864700C00240D9
:101B0000001BB70040597307006CDC0240420F0015
:101B100001480421014B184710020020FD18001055
:101B2000124A936F9B0815D29066D166002905D0A2
:101B3000FFE7FFE7FFE7516F106F704704B58021A3
:101B40000906C2175140002800D0C84304F0A4F988
:101B5000002104BDF0B5146E556E576F166FFFF778
:101B6000E3FF1466556657671667F0BD000000D0A6
:101B7000114A936F9B0813D210665166002905D055
:101B8000FFE7FFE7FFE7516F106F704704B50028CC
:101B900001D00020C04304F07FF9002104BDC046FD
:101BA000F0B5146E556E576F166FFFF7E5FF1466AC
:101BB000556657671667F0BD000000D094464A4A44
:101BC000926F9208624601D228E0C046F0B5464EB8
:101BD000346E756E776F366F00F020F89446424A87
:101BE00014665566576716676246F0BD94463E4ACE
:101BF000926F9208624601D254E0C046F0B53A4E68
:101C0000346E756E776F366F00F04CF89446364A36
:101C100014665566576716676246F0BD002B24DBD5
:101C200011D000293EDA00B5C943404200D101314C
:101C300000F038F8C943404200D10131DB43524241
:101C400000D1013300BD002AEBD1002801D10029C9
:101C500005D00020C90FC90701D1C043410800B514
:101C600004F012F90022002300BD00B500290ADBB0
:101C7000DB43524200D1013300F014F8C943404223
:101C800000D1013100BDC943404200D10131DB43E5
:101C9000524200D1013300F005F8DB43524200D13B
:101CA000013300BD002923D1002B18D1002A0CD00C
:101CB000BC460D4F38667A6600210023FFE7FFE738
:101CC000FFE77A6F386F67467047002801D00748F2
:101CD000010000B504F0D8F80022002300BD020086
:101CE0000B00002000217047000000D0FFFFFFFF25
:101CF000002B00D0BFE0130C28D1002AE7D080B41D
:101D0000114F39667A66FFE7FFE730B4040C7B6F4A
:101D1000396F1B0423433B667A66FFE7FFE7FFE763
:101D2000C04684B27B6F3D6F1B0423433B667A66DB
:101D3000FFE7FFE7C04600232C042D0C7A6F386FB5
:101D400000196941B0BC7047000000D0F0B594465E
:101D50000025140E01D112020835140F01D1120111
:101D60000435940F01D192000235D40F01D15200F5
:101D70000135D40B0134254F7C66254C3C660E0C96
:101D800093B2FFE7FFE7FFE73C6F6643360C77034C
:101D9000BE467343DF0B5B04C01AB941130C734397
:101DA000DB18C91ACE086643360CB64493B27343A7
:101DB0001F0F1B01C01AB941130C73431F0B1B05E6
:101DC000C01AB941860D8F023E436643360C092D79
:101DD00024DB520A7243801A7703460A6643360CA4
:101DE00016235B1BDE40DF40BF1964466643821B3F
:101DF0007046043506330100D940A840C01900D30D
:101E00000131A24206D20023F0BD0000000000D044
:101E1000FFFFFFFF121B0130F3D3F1E709277F1B00
:101E2000FE406446A2B27243801A00D20139220CED
:101E30007243130C1204821A99410B007046043548
:101E400013370100F940A840801900D30131002B5D
:101E500002D1A2420AD2F0BD013000D30131121BDF
:101E6000FAD2013BF8D1A24200D2F0BD013000D33A
:101E70000131121BF7E7F0B51C0C00D080E00CB468
:101E800000251C0A04D11B02160E3343120208352A
:101E90001C0B04D11B01160F3343120104359C0B9C
:101EA00004D19B00960F334392000235DC0B02D124
:101EB00092185B4101351C00971864410134464F6C
:101EC0007C66464C3C660E0CFFE7FFE7FFE7C0462A
:101ED0003C6F6643360C7703BE4697B27743C01B10
:101EE00000D20139C01B00D201399FB27743C91B10
:101EF000C91B170C77437E04FF0B801BB941CE082A
:101F00006643360C0C2D33DBB644120B1F053A43E7
:101F10001B0B97B27743C01B00D201399FB27743A6
:101F2000C91B170C77433E043F0C801BB941860D3B
:101F30008F023E43664329277F1BFE400C3D7746B8
:101F4000AF40BF1930BCA2B2ABB272437343801A28
:101F50009941220C7243130C1204801A9941020019
:101F60000B000137001BA941F9D2781E0021F0BDFA
:101F70000C277F1BFE4077467F0BAF40FF19E0E741
:101F800000245D1C07D0144F7D663966FFE7FFE72C
:101F9000FFE7FFE73C6F95B29EB265436643401B87
:101FA000B141150C1E0C6543664336042F0C3E43AD
:101FB0002D04401BB141994204D202000B002000C5
:101FC0000021F0BD01D19042F7D3801A994101342C
:101FD0009942F2D3F6E70000000000D0FFFFFFFFB8
:101FE00048404140484018B41B4B5B68FC46019395
:101FF00008BD04DF4322001018B4174B1B68FC46D1
:10200000019308BD00DF4D2200109446134A926FE1
:10201000920809D2624618B40F4BDB68FC46019364
:1020200008BD0CDF052500100C4AF0B5146E556E86
:10203000576F166F6246FFF7EEFF084A1466556643
:1020400057671667F0BD18B4034B9B68FC460193B5
:1020500008BD08DFA9230010D00C0020000000D02C
:10206000FFB550404240504059404B40594000E07D
:10207000FFB5154F4C00640D03D0BC4204D10C03D6
:1020800014D80020090D09055C00640D03D0BC4282
:1020900004D11C030AD800221B0D1B0501264B404E
:1020A00009D44B4003D58B4200D18242FFBD9942F7
:1020B000FCD19042FFBD0B43DB1803431343F5D023
:1020C000C9434918FFBD0000FF07000000B5FFF736
:1020D000CFFF804100BDC04600B5FFF7C1FF01D969
:1020E000002000BD012000BD00B5FFF7B9FF804111
:1020F00000BD012040054A00121804D85A001218E9
:1021000001D80020704701207047000000210028FE
:1021100005D17047C1174840401AFAD0C90713B516
:10212000064B1B6898470CBC441CA2401005120BC0
:102130000349091B09051943114310BDBC0C0020BC
:102140001F04000010B54C00620D8023D218DB0084
:10215000D21A5B057E2A10DD9E3A13DACC170903EA
:10216000490819435242D140640001341532202AF3
:1021700005DAD0400843604310BD002010BD08467A
:10218000604310BDC80FC018013810BD18B4044B0F
:102190005B6AFC46019308BD24DFB52600100000F1
:1021A000D00C0020132370B51C78012C15D01EDD37
:1021B0001148FFF79BFB06001048FFF797FB104DF7
:1021C00080223100280000F05BFB022C10D00D486B
:1021D000FFF784FB0C4B186070BD094D0B4A2900BA
:1021E0002B00803104C38B42FCD1AA64EFE7044D7D
:1021F000064AAA64EBE7C046534400005346000079
:10220000D00C00204C330000BC0C00201122001028
:1022100007B5604601880A0A0230DF2AFAD1C9B23E
:10222000820804D3028840880004104300E000685C
:10223000014A5050039007BDD00C00200FB403BCDE
:102240000CBCF0B50124E407634000E0F0B50C0DD0
:10225000CF0F661E3605891B640503D3C943404270
:1022600000D30131640D03D0661CF60A07D0E41BCD
:1022700000207F00791C89078912803C24031D0DF2
:10228000DF0F6E1E36059B1B6D0503D3DB435242E9
:1022900000D301336D0D03D06E1CF60A07D0ED1B81
:1022A00000227F007B1C9B079B12803D2D032F1B70
:1022B000661B58D4A446202E46DA20371400BC40B2
:1022C0001D00BD40F24033412A4380185941CB0FD5
:1022D00005D0C943C0430022644250415141624687
:1022E0004D0D28D10D0D07D100281FD024194041D4
:1022F0004941013A0D0DF9D0640006D3013000D3F5
:102300000131002C01D140084000013A0BD4941C4B
:10231000E40A04D112051144DB071944F0BDD907C2
:10232000204B194300E0D9070020F0BD0029DDD182
:10233000002CDBD1F0BD0132C6074008CD07284391
:102340004908002EE1D0D9E73C2E29DA203E40375B
:102350001400BC4000D00124F24014431A00BB40DA
:102360001C43D317ACE7AC46202F08DA2036040014
:10237000B4400D00B540F84039412843A5E73C2F53
:102380000CDA203F40360400B44000D00124F8406D
:1023900004430800B1400C43C117EAE710001900DC
:1023A000002494E70000F07FF0B50C0D661E3605A2
:1023B000891BE60A6405640D02D0651CED0A04D091
:1023C000002001210905803C2403A4461C0D671E42
:1023D0003F05DB1BE70A6405640D02D0651CED0AAE
:1023E00004D0002201231B05803C24037740644471
:1023F00097B484B296B27443070C7E43150C6F43B6
:1024000080B26843361802D3012000043F1830041C
:10241000350C00197D41844688B29AB250430C0CA9
:1024200062431F0C7C438EB27E43921902D3012675
:102430003604A4191604170C3618674101BC81B282
:102440009AB25143040C62431B0C5C4380B2584364
:10245000121802D30120000424181004130C401891
:1024600063412D185E410020474106BC88B293B2FB
:1024700058430C0C6343120C544389B251435B180C
:1024800002D301210904641819041A0C09186241C5
:102490006D1856410020474118BCF902720D1143D6
:1024A000F0026A0D1043ED020A0D03D16D1940418F
:1024B0004941013B124E9B1B7600B3420ED26D0088
:1024C00007D30130002671416646354301D14008EB
:1024D00040001B05C918E4072144F0BD0BDA0133A5
:1024E00006D1013004D101314F0D01D04908F2E786
:1024F000E1070020F0BD013631050020EBE70000C8
:10250000FF030000F0B51C0D671E3F05DB1BE70A4B
:102510006405640D02D0661CF60A04D00022012373
:102520001B05803C2403D0252D060026F6432E668D
:102530001E096E66CE0FF619B44649004F0D02D043
:102540007E1CF60A03D000200021403F3F033E1BC3
:10255000B600B444013F7F05C91B49082E6F013600
:1025600076089C02950D25437543ED137543AD1315
:1025700001356D10F603761B0CB4CC02450D2C43CF
:10258000A2B2B3B25A43270C7B43350C6F43A4B2BB
:102590006C431B1902D3012424043F191C041D0C95
:1025A000A4187D4124196D41009A91B2ACB26143E7
:1025B000170C7C432B0C5F4392B25A43A41802D3EE
:1025C00001221204BF182204230C52187B41019CE3
:1025D0006C431B19520ED9010A434401A01A81B25F
:1025E000B2B2514303145A43360C734387B2774354
:1025F000D617D21900277E4136049B191704160CF2
:102600007F185E417316ED18F30100268033754183
:10261000A90F06D16400690AE8055B0A184309D2CC
:102620002FE00422944480337541A90AA8059B0A2F
:10263000184326D3404149412404009A019B0D00D0
:102640005543641B4343E41A95B286B27543170C95
:102650007E43030C5F4392B25A43B61802D3012261
:102660001204BF183204330C52197B4152429C4170
:10267000002C02D40022013051414008CA07104307
:10268000490802B06246D7079210084BD218084B8F
:102690009A4203D212058918C919F0BD0020002AF8
:1026A00001DC3900F0BD01331905F5E7FD03000039
:1026B000FE070000002200B5203200F004F80800F8
:1026C00000BD000000220B150AD410B5944600F09E
:1026D00031F81414013400DA0021CB17144C2047D0
:1026E0000020002170476244343A0CD40C2A07DAE7
:1026F00004009140904052422032D440214310BD0A
:10270000D843D94310BD203207D40C4694405242DE
:1027100020321141D040204310BD0800C91720329B
:1027200003D452422032104110BD1800190010BDD0
:10273000E72600100A0DCC0F531E1B05C91A5205BF
:1027400003D3C943404200D30131520D03D0531C7F
:10275000DB0A07D0121B00206400611C8907891264
:10276000803A1203014BD21A70470000FF030000A9
:1027700051434343C9188C46110C83B24B4310B4E8
:10278000040C614392B280B2504362431C041B0CA0
:10279000001910BC59411304120CC0185141614476
:1027A00070470000132310B51C781348FFF79EF8FC
:1027B000012C0BD004DD01008022104800F060F8ED
:1027C0000F48FFF78BF80F4B186010BD0B4C010042
:1027D0005422200000F054F80B4B6365A365E365B9
:1027E00023666366A366E36623676367A367E3679D
:1027F0002362E361E4E7C04653460000D00D0020A9
:102800004C330000BC0C00200D28001007B56046BA
:1028100001880A0A0230DF2AFAD1C9B2820804D339
:10282000028840880004104300E00068014A5050CC
:10283000039007BDD00D002010B5040002F0CAFEC1
:10284000002804D0034B04199C4200D810BD024854
:10285000FEF708F8000004205C61001010B502F0DB
:10286000C3FE10BD01480421014B1847200200207F
:10287000FD180010014B1B681847000020020020C3
:10288000014B5B6818470000200200209A4200D2EA
:10289000885470477047C04610B5002801D002F038
:1028A00055FC10BDF0B557464546DE464E46E0B5F0
:1028B00085B0984610AB1D78139B93469A46022329
:1028C000149A0F00134006000F9C12990193002BDD
:1028D0002DD1013313409C465346002B66D18C42C8
:1028E0000DD21F2C00D912E10E9B30201B1902E0E3
:1028F0000133202C03D001341870A142F8D863466C
:10290000002B14D0A24512D90E9B30201B191F2C6E
:1029100021D8AC461500524602E00133202C17D0D6
:10292000013418709442F8D192462A006546D306C5
:102930002ED5530519D4002C11D1119B102B00D189
:10294000D9E0022B1FD10E9960330B7001241AE0DD
:1029500092462A006546D3063ED5530505D4A142CA
:1029600000D19FE0544500D19CE0119B102B65D015
:10297000022B06D11F2C65D862210E9B1B191970E2
:1029800001341F2C5ED830210E9B1B1919700134A5
:102990001F2C57D8002D1BD1530700D570E013070B
:1029A00050D520230E990B55013415E06346002BBA
:1029B0006BD0002D00D070E00C2313426DD18C42FF
:1029C000A0D21F2C90D953462024202BC3D8AEE789
:1029D0002D230E990B550134930736D05B46039394
:1029E0001A000E9B029499464B46013C551C185DFB
:1029F00039004346B0472A00002CF5D1039A029BC8
:102A0000944663441D00019B002B0FD05B46EB1ADC
:102A100053450BD22A005D46541C43463900202002
:102A2000B0472200631B5345F6D32500280005B0AC
:102A30003CBC90469946A246AB46F0BD930641D5B4
:102A40001F2C52D95D46930712D1544538D25B46AC
:102A500053441B1B0F941C000F9B5A469946551C50
:102A6000434639002020B0472A00A542F7D14C4602
:102A7000002CC8D00E9B039502942A009946B3E718
:102A80002B230E990B550134A6E78C4200D34EE759
:102A90001F2C00D828E7202449E701235B429946F0
:102AA000CA448CE7631E002B15D1119B102B19D043
:102AB000022B00D147E730230E9901240B7069E700
:102AC0005D46D5E71F2C00D986E778210E9B1B19A0
:102AD0001970013455E71199023C1029AED01C0041
:102AE0000B0045E793060DD5002458210E9B1B19BA
:102AF0001970013445E7930604D558230E99012433
:102B00000B7040E778230E9901240B703BE72024DB
:102B1000F5E6C046F0B54546DE4657464E46E0B5BA
:102B20009BB09846259B249C1D00089009910A9211
:102B30000C9300220023200029000B94FFF7C6FA13
:102B4000002800D0A7E10B9A0C9B92469B4680235D
:102B5000289ADB001A400E9201D106232693802387
:102B6000289A1B011A4056465B460D92334300D10A
:102B700061E15B465800CC4B400D9C466044FFF73A
:102B8000C9FACA4ACA4BFFF75EFACA4ACA4BFFF7EC
:102B900033FA5B46C94A1B031B0B1A4304000D00A2
:102BA000C74B110050460022FFF71DFAC54AC64B1D
:102BB000FFF749FA02000B0020002900FFF71CFA7A
:102BC000FFF7C0FA8146FFF7A5FAC04AC04B0400E0
:102BD0000D00FFF738FA0022BE4BFFF70DFAFFF7A2
:102BE000B1FABD4A0600BD4B20002900FFF72BFAC1
:102BF000040030000D000F96FFF78CFAB84AB94B6D
:102C0000FFF721FA02000B0020002900FFF7EBF983
:102C100002000B0006000F00FFF715FA3200040057
:102C20000D003B0030003900FFF7E6F9002210905C
:102C30001191AD4B20002900FFF7E7F90022AB4BC3
:102C4000FFF7DAF902000B0020002900FFF7DDF999
:102C50000022A74BFFF7D0F902000B00200029004B
:102C6000FFF7D3F90D008021040032003B00002063
:102C7000C905FFF7B8F902000B0020002900FFF793
:102C8000BBF902000B0010981199FFF7BEF9002262
:102C90008A4BFFF7B1F9974A0F9B94466344002291
:102CA0001B05FFF7D0F905000C0002000B00504691
:102CB0005946FFF70BFA00280BD001235B429C46D4
:102CC000280021000022894BE144FFF79EF905000E
:102CD0000C004B46C62663339E42B6410D9B76429E
:102CE0000436002B00D0BCE0279B00279E4200D278
:102CF0009F1B0223289A1A400D9203D073427341FE
:102D00005B421F404B46002B07D0504659462A00D5
:102D10002300FFF77AF982468B46002200230B98A6
:102D20000C99FFF7D3F9002803D0802109065944F4
:102D30008B4652465B4650465946FFF7DAF9002863
:102D400000D044E101226C4B524250465946FFF7F5
:102D5000BDF9002800D0D7E0289A684B03971340AC
:102D60000493269B524602935B4609990092019375
:102D700008980A9A434600F0FFFC0200002E52D049
:102D80002020289B089C034059424B415B4218403D
:102D9000531C45309A4609994346A0474B46DA17DB
:102DA0009D18DB0F9946731E55409B46002412AEBA
:102DB00002E03C00202F0DD028000A21FEF7D8FEAB
:102DC000671C30313419217028000A21FEF7D0FE2B
:102DD000051EEED1052306935B460593002304935D
:102DE0000A3303934B4601970096099F089E02936E
:102DF0005246434639003000FFF754FD0D9B020058
:102E0000002B10D00A99431A279898420BD989466B
:102E10000500434639002020541CB0474B46220091
:102E2000E31A9D42F5D810001BB03CBC9046994671
:102E3000A246AB46F0BD0D9B55465C46002B27D005
:102E400000239946269B4B4500DDB1E000232693E5
:102E50008023289ADB001A430023289200269946F3
:102E600042E723002B43EDD0254A264B50465946D6
:102E7000FFF732F9002800D09FE0269B002B00D1FD
:102E800032E70E9B5A1E9341269AD31A26932BE7BC
:102E90000426994628E78022120694460C9BA246F7
:102EA00063449B4653E6C04601FCFFFFFB799F50FD
:102EB0001344D33FB3C8608B288AC63F0000F03F5D
:102EC0000000F83F61436F63A787D23F71A3790980
:102ED0004F930A400000E03F1655B5BBB16B02406E
:102EE000EF39FAFE422EE63F00002C40000024405D
:102EF00000001840FF030000FFFFEFFFFFF7FFFF98
:102F00002D431CEBE2361A3F0A9A289B14009B07BC
:102F100015D1042F13D9B2464646151FED19BB46ED
:102F2000099F0B95330039002020089D541CA847A9
:102F30000B9B22009C42F5D1B0465F4656464D4B56
:102F400049469A464346B94622000425A346B04660
:102F50001F000B915346013D541C585D09993B00DD
:102F6000089EB0472200002DF4D13B005C460B9A2E
:102F7000464698460D9B4F469146221D002B00D198
:102F8000FCE60A9BD31A9F4200D8F7E6B3464646B2
:102F9000BA46099F330039002020089D541CA847D9
:102FA0000A9B2200E31A9A45F4D8B0465E46E5E64D
:102FB0004A469B1A013B26934AE700222E4B504675
:102FC0005946FFF783F8002800D03BE755E70A9BF6
:102FD000289A9A46920717D1032F15D9B2461A009C
:102FE0004646DC1EE419BB46099F0B9433003900AA
:102FF0002020089C551CA0470B9B2A009D42F5D120
:10300000B0465F465646AA461C4B49469B46434639
:10301000B94652460324B0461F000B915B46013C63
:10302000551C185D09993B00089EB0472A00002CEA
:10303000F4D13B000B9A4F4691465246464698467D
:103040000D9B0332002B00D198E60A9BD31A9F42B6
:1030500000D893E6B3464646BA46099F3300390086
:103060002020089D541CA8470A9B2200E31A9A4579
:10307000F4D89AE7E463001080842E41E0630010E6
:10308000F0B5DE4657464E464546E0B597B00500DA
:103090000E0093461F00209A219B10001900FFF795
:1030A00028F8002800D0AEE2209821990122C54BD3
:1030B0005242FFF70BF8002800D034E12098219904
:1030C0000122C14B5242FFF70FF8002800D0C1E0A7
:1030D000209821990022BD4BFFF706F8002800D068
:1030E00008E1209821990022B94BFEF7EFFF002854
:1030F00000D0FFE02098219900220023FEF7E6FF90
:10310000002800D074E200230D938023249ADB0072
:103110001A40904600D0BAE10023AE4C06930794C3
:103120000EAB06249A4620982199FFF70BF80990D8
:10313000FEF7F0FF02000B0020982199FEF753FFE5
:10314000069A079BFEF77FFF0A900B91FFF71EF888
:1031500081460C90FEF7DAFF02000B000A980B99EB
:10316000FEF741FF00229C4B0A900B91FEF7BCFF3B
:10317000002800D1E5E14B46013318000C93FEF71F
:10318000C5FF069A079BFEF7A7FF002800D0FBE1CA
:10319000002C00D09CE1099C2000FEF7BBFF020040
:1031A0000B0020982199FEF71EFF00228A4B069003
:1031B0000791FEF78BFF002800D1D5E14346202B75
:1031C00000D112E15C1C099B0A2118009946FEF708
:1031D000A7FC424653463031995448460A21FEF72F
:1031E0009FFCA046814600281ED05346A846BA46FA
:1031F0004D461F00B14600E03400202C00D162E2B1
:1032000028000A21FEF78CFC661C30313C19217025
:1032100028000A21FEF784FC051EEDD13B0045463F
:103220005746B0469A464E460323249A1340012B34
:1032300000D1B1E142462024202A00D1DCE00D9AE1
:10324000002A00D135E242465146541C40462D2208
:103250000A54D1E0249B5B0700D5ADE05F4B9A4652
:10326000032398465B460693249B9B0718D1239B18
:10327000434500D84EE25B441C004346E41AB9467D
:103280005A4637002E002500541C4B46390020209A
:10329000B0472200AC42F7D135003E004F460694BD
:1032A000B14644465646BA462F00069A013C551C84
:1032B000305D53464946B8472A00002CF6D1069B9C
:1032C0003D0043441A00249B9B0724D55B46239969
:1032D000D31A99421FD92E00D0464F460D004346BF
:1032E00039002020541CB0475B462200E31A9D425F
:1032F000F5D810E0249B5A460493239B3100039396
:10330000229B28000293209B219C009301943B0068
:10331000FFF700FC0200100017B03CBC9046994635
:10332000A246AB46F0BD249BD8469B0718D1239BF1
:10333000042B15D95B461C1F239BB8469C4664444E
:1033400037005A462E002500541C434639002020E1
:10335000B0472200AC42F7D135003E004746A046B8
:103360001F4BB9464246370004249A462E00534666
:10337000013C551C185D39004B46B0472A00002C13
:10338000F5D14246249B350004323E009B07C2D54E
:103390005B462399D31A9942BDD93700C8462E00FF
:1033A0000D00434639002020541CB0475B462200E4
:1033B000E31A9D42F5D8AEE70A4B9A460423984695
:1033C00050E7C046FFFFEFFFFFFFEF7F65CDCD4128
:1033D00065CDCDC180842E410000E03FF463001034
:1033E000E4630010EC630010A2460323249A134008
:1033F000012B00D1CEE02024D846002B17D1239BEF
:103400009C4214D25B441B1BB8465A463700A14667
:103410002E001D00541C434639002020B0472200D6
:10342000AC42F7D135003E004746A0464C464346E5
:103430004246A146B84637002E0006935346013C4B
:10344000551C185D39004346B0472A00002CF5D1C1
:1034500006994B468C4663441A00249B35003E0077
:103460009B0700D457E75B462399D31A994200D8AB
:1034700051E737002E000D00434639002020541C30
:10348000B0475B462200E31A9D42F5D843E7229BF2
:10349000092B00D85BE10EAB9A46302352461370DD
:1034A00001229046229B2F325C1E4146203B504613
:1034B00005E0013C425401319C4200D1EEE0092C70
:1034C000F7D10022A84B88468246069207932AE647
:1034D0004346202B89D0631E069301230C9C434452
:1034E00020000A219946FEF743FB534642463031FD
:1034F000995420000A21FEF73BFB041E00D122E173
:10350000A84625004C46B9465746B24612E0069BEF
:103510002800013B0A210693FEF72AFB661C303186
:103520003C19217028000A21FEF722FB051E00D15C
:10353000CFE03400202CEAD156464546BA464F46E5
:1035400053E700220A980B99884BFEF7BFFD00282D
:1035500000D01DE60C9B002B02D0DB0700D417E641
:103560000C9B01330C9313E60022069807997F4BBE
:10357000FEF7BAFD002800D020E60123A446234030
:103580009C446346099319E6099B01330993002380
:103590000C93FDE520239846239B002B00D1BFE030
:1035A0000D9B002B03D1249A0C33134202D0239B92
:1035B000013B2393239B434500D8B1E0424630238F
:1035C000202A00D1B1E0424650462399541C83542E
:1035D0008C4200D1A1E02200202CF7D12023994673
:1035E0005B46B8468246370006935A462E0025E7CA
:1035F000209A219B00200021FEF7F5FC012320905A
:1036000021910D9381E5249BD8469B0718D1239BDC
:10361000032B15D95B46DC1E239BB8469C466444AD
:1036200037005A462E002500541C434639002020FE
:10363000B0472200AC42F7D135003E004746A046D5
:103640004B4BB9464246370003249A462E00534658
:10365000013C551C185D39004B46B0472A00002C30
:10366000F5D14246249B350003323E009B0700D42F
:1036700051E65B462399D31A994200D84BE63700AE
:10368000C8462E000D00434639002020541CB04788
:103690005B462200E31A9D42F5D83CE6354BE2003A
:1036A0009B181A685B680692079320238246984607
:1036B00039E5249A52073BD542465146541C4046B0
:1036C0002B220A5498E63B00454657464E469A46FA
:1036D0008BE64546B0465646BA464F464346202BF3
:1036E00000D182E6069B40461A004244110054462F
:1036F0003022002B29D0431C2254202B00D173E60A
:1037000018008B42F7D1A2465A1C904651462E22F1
:10371000CA5453E55B460693C2E5239B824698460E
:1037200042460123202A00D089E52024D8467EE69F
:10373000249A4446120700D45EE6202251464046B1
:1037400001340A5458E6C846C8E74346DCE7DA00C5
:10375000084B9B185C681B680693079400239846E7
:103760000EAB229C9A46DEE465CDCD410000E03FE1
:10377000E0630010F8630010F0B557464E4645462A
:10378000DE46E0B597B00792012206000F002098B0
:10379000219998465242CF4BFEF7A6FC00284DD007
:1037A000249B5B0700D541E1CB4B9A4603239B4604
:1037B000079A249B14009B0711D1239B9B450ED293
:1037C000190013008C4663441D005B46ED1A541C1F
:1037D000434639002020B0472200AC42F7D1B94619
:1037E000220037005D465646A246013D541C705DDE
:1037F00043464946B8472200002DF6D15246249B45
:103800003E005A444F469B0710D507992398531AF8
:1038100098420BD989460500434639002020541CA4
:10382000B0474B462200E31A9D42F5D8100017B06E
:103830003CBC90469946A246AB46F0BD002220987B
:103840002199A64BFEF750FC002800D0F3E0209809
:1038500021990022A24BFEF739FC002800D0EAE0B3
:103860002098219900220023FEF730FC002800D088
:1038700092E100230D938025249BED001D4000D094
:1038800017E10023974C089309940EAB06249B463E
:1038900020982199FEF756FC81460C90FEF73AFCE1
:1038A00002000B0020982199FEF79DFB089A099BC6
:1038B000FEF7C9FB0A900B91FEF768FC8246FEF703
:1038C00025FC02000B000A980B99FEF78CFB0022E6
:1038D000854B0A900B91FEF707FC002800D148E1C8
:1038E00001239C46E2445046FEF710FC089A099BCF
:1038F000FEF7F2FB002800D09CE1002C00D006E18E
:103900000C9C2000FEF706FC02000B002098219979
:10391000FEF769FB0022744B08900991FEF7D6FB75
:10392000002800D176E1202D00D1BAE00C9B0A21BD
:1039300018009946FEF7F4F85B4630315955484671
:103940000A21FEF7EDF86C1C8146250000281AD0EC
:103950004D46BA46B1465F4600E03400202C00D107
:1039600003E128000A21FEF7DBF8661C30313C1920
:10397000217028000A21FEF7D3F8051EEDD135008D
:10398000BB464E4657460323249A1340012B00D1D1
:103990000EE12024202D0BD00D9A002A00D034E116
:1039A000249A520700D46FE12B2259466C1C4A55C9
:1039B000079A1500002B12D1239B9C420FD21900AD
:1039C00013008C4663441B1BA1461C00551C434638
:1039D00039002020B0472A00A542F7D14C46A24624
:1039E000A9462A005B46013C551C185D3900434638
:1039F000B0472A00002CF5D14B4653441A00249BB3
:103A00009B0700D412E707992398531A834200D3E7
:103A10000CE789460500434639002020541CB04776
:103A20004B462200E31A9D42F5D8FFE62F4B9A46FB
:103A300004239B46BCE6209A219B10001900FEF748
:103A400058FB00281AD1209821990122284B524274
:103A5000FEF73CFB002811D1249B079A0493239B7B
:103A600039000393229B30000293209B219C0093FA
:103A700001944346FFF74EF80200D7E6249B079ACD
:103A80000493239B39000393229B30000293209BD5
:103A9000219C009301944346FFF7F2FA0200C5E629
:103AA00083460323249A1340012B00D17FE0202476
:103AB0007EE7229B092B00D8F2E00EAB9B46302319
:103AC0005A461370229B01255C1E3022203B59462A
:103AD00015E0C046FFFFEF7FF463001065CDCD41D8
:103AE00065CDCDC180842E410000E03FEC63001025
:103AF000FFFFEFFF013C4A5501359C427BD0092C6A
:103B0000F8D100226C4B8B4608920993C0E6202D19
:103B1000C7D06B1C50460A219946FEF729F85B4630
:103B20003031595550460A21FEF722F8013C8246B1
:103B3000002800D1B2E04B465546B146BA465F4632
:103B400011E09B4628000A215E1CBB44FEF710F8DA
:103B50005B463031197028000A21FEF709F8013C54
:103B6000051E76D03300202BEBD1BB464E46574680
:103B700097E700220A980B99504BFEF7A7FA002806
:103B800000D0BAE65346002B02D0DB0700D4B4E6DF
:103B900001239C46E244B0E6209A219B00200021AC
:103BA000FEF721FA0123209021910D9363E6202551
:103BB000239B002B46D00D9B002B03D1249A0C3362
:103BC000134202D0239B013B2393239BAB4239D961
:103BD0003023202D3AD05946239A6C1C4B559442E1
:103BE0002ED02500202CF8D12023079D8B469A4605
:103BF000A9462A00F6E6324BE2009B181A685B6879
:103C00008B4608920993202542E62D2259466C1CCA
:103C10004A55CDE6002208980999284BFEF764FA28
:103C2000002800D07FE60123A44623409C4463463D
:103C30000C9378E64B4601330C9300239A465CE6DE
:103C40008B46239D0123202D00D0A5E62024079D2F
:103C5000C5E63500BB464E465746202D00D120E72D
:103C6000611930222B00002C09D058466B1C42559C
:103C7000202B00D114E71D008B42F7D183462E2262
:103C800059465D1CCA544EE6249A2C00120700D4F3
:103C90008EE62022594601344A5589E64D46DCE736
:103CA000DA00074B00259B185C681B680893099491
:103CB0000EAB229C9B46EBE565CDCD410000E03F7D
:103CC000F8630010F0B5DE4657464E464546E0B56F
:103CD000A9B01E00329B90460A93BF4ABF4B834651
:103CE0008A461A60002968D0D1460025DA46307825
:103CF00000280BD0013625281BD02A004346494610
:103D0000D04730786C1C25000028F3D1D3462A0018
:103D1000CA46454501D343465A1E434651460020F4
:103D2000D847280029B03CBC90469946A246AB46ED
:103D3000F0BD102330789B460E3B9C460300203B91
:103D4000721CDBB20027A64C1100102B0DD89B0073
:103D5000E3589F46012316001F433078721C03006E
:103D6000203BDBB21100102BF1D90300303B092BB3
:103D700000D8AEE100239B462A2800D1CFE10024E1
:103D80002E2800D1BDE10300683BDBB2122B00D925
:103D9000D3E3944A9B00D3589F46042316001F4345
:103DA000DBE7634616001F43D7E75B4616001F4359
:103DB000D3E7082316001F43CFE78B4B9B4693E7BF
:103DC00080235B0070781F434E1C0300253BDBB251
:103DD000532B92D8854A9B00D3589F4670786C2805
:103DE00001D100F0C0FC80235B001F434E1CECE7B8
:103DF00080239B0070781F434E1CE6E7707868288C
:103E000001D100F019FD80234E1C1F43DDE7462839
:103E100001D100F058FC07220A9B04970733934313
:103E2000013294469C4462460A925A460294039296
:103E30005C681B682A00009301944946434650463B
:103E4000FFF71EF9050052E72A006C1C434649465D
:103E50002520D04725004AE70A9B1A1D1B680C92B3
:103E60000A931878002C00D0ABE3002801D100F0B1
:103E7000A2FF02211A00494201239C4643460890B2
:103E80000B9307E00A98634680469B1A43445B18ED
:103E9000002B03D001321378002BF3D10B9B089831
:103EA00098460A9BD31A08938023DB003B400B9370
:103EB00003D0089BA34200D9089402231F4001D1DC
:103EC00000F0DBFC002801D100F0BCFC0B9B002BB8
:103ED00001D000F062FE0A9B2A005C1B23005446BE
:103EE000B2464E46B946474698463B003100551CFF
:103EF000A0474346585D2A000028F6D1B8464F46F1
:103F0000B1465646A246002F01D000F09BFC0C9B08
:103F10000A93ECE60A9B1A1D1B689346002B00D1FE
:103F200042E3212217430A970F2020A90B94002275
:103F3000089184460C0002E020290CD00A0061465A
:103F40001940CFB238003730092900D80738511C42
:103F5000A0541B09F0D10B9C0A9B019106930823E6
:103F600005930833039300230293089B2A000093D0
:103F70000494434649465046FEF794FC5B460500D0
:103F80000A93B4E60A9B6C1C04330B940893BB079A
:103F900000D478E30A9B2A00187849464346D04764
:103FA0005B465D44012B01D800F07EFE2B00574696
:103FB0004D46B146464698460B9A541C330029009C
:103FC0002020B84722004445F7D1B046BA464E46B5
:103FD000A946250073E3C046C53C0010A80C00208C
:103FE00000620010446200109528001090620010DA
:103FF000782800D1ECE2582801D100F067FC6F2846
:1040000001D100F051FD622801D100F04FFE1023D4
:104010003A009A430B92692801D000F039FF7B05E2
:1040200001D500F02BFD80239B001F40F73BFF3B99
:104030000C93002F01D000F0C3FC80230B9A5B008F
:104040001A40130094460A9A04320D92002B01D0B4
:1040500000F0CAFD0B9B5B0601D400F0BCFD0A9B7F
:104060001B78DA1798185040DA0F0A92002B08D103
:104070000B9A1033110099430B91520501D500F0B2
:10408000A2FE0B9B61279B0600D541275A4620AB19
:10409000FFB20E950F94B34608930A3F6446109200
:1040A0000C9D1E000CE03033DBB2621C335500283F
:1040B00001D100F017FC202A01D100F013FC1400FC
:1040C0002900FDF755FDCBB20929ECD9DB19DBB28C
:1040D000EBE70023010001E0160001329800C01850
:1040E000400040181178030008003038303B0928A0
:1040F000F2D908009B46B11C002416002E2800D0DF
:1041000041E680237078DB001F430300303B092B1E
:1041100015D92A2800D1DAE20E00013133E60A99D6
:104120000B1D09688B46002904DA02210F4359460A
:1041300049428B467078B11C0A9316001FE60300B3
:1041400000E03100A00000194000C0184B78303862
:104150001A00303A4E1C0400092AF2D91800023124
:1041600011E6202302009A43472A02D180231B0133
:104170001F4302239843452801D11E331F430722C2
:104180000A9B07339343013294469C446246196864
:104190005868089109900A9203000A000B910C904C
:1041A00008980999FDF7A5FF002800D09BE201229D
:1041B000E34B52420B980C99FDF796FF0122E14B1D
:1041C0005242002800D0D5E20B980C99FDF77EFFF3
:1041D000002800D0A2E3002200230B980C99FDF7E1
:1041E00075FF002801D000F055FD0B9A0C9B08923A
:1041F0000D938023DB003B40179300D106248023DE
:104200000D9A1B013B400E93130008990F910B432D
:1042100001D100F0B6FCCC4B50009C46400D6044F0
:10422000FDF778FFC94ACA4BFDF70DFFC94ACA4BD3
:10423000FDF7E2FE0D9A109011911303C74A0F99F2
:104240001B0B1A431B921A9100221A981B99C44BFC
:10425000FDF7C9FEC34AC44BFDF7F5FE02000B0093
:1042600010981199FDF7C8FEFDF76CFF0F90FDF750
:1042700051FFBE4ABE4B10901191FDF7E4FE0022A3
:10428000BC4BFDF7B9FEFDF75DFFBB4ABB4B16907B
:1042900010981199FDF7D7FE109011911698FDF71F
:1042A00039FFB74AB74BFDF7CEFE02000B0010985E
:1042B0001199FDF798FE02000B0010901191FDF787
:1042C000C2FE149015911098119902000B00FDF791
:1042D00093FE00221E901F9114981599AA4BFDF78A
:1042E00094FE0022A94BFDF787FE02000B001498F4
:1042F0001599FDF78AFE0022A54BFDF77DFE020011
:104300000B0014981599FDF780FE109A119B1490DC
:10431000159180210020C905FDF765FE02000B0004
:1043200014981599FDF768FE02000B001E981F995E
:10433000FDF76BFE0022894BFDF75EFE169B1A000F
:10434000944B9C46624413051D9300231C931C9AB6
:104350001D9BFDF778FE1490020016910B00089843
:104360000D99FDF7B3FE00280AD00F9B1498013B6E
:104370000F9316990022854BFDF747FE1490169176
:10438000C6230F9A633293429B415B4204331093DE
:104390000E9B002B1DD0169B149A134301D100F0E5
:1043A000C1FC7D4A7D4B08980D99FDF795FE0028CC
:1043B00009D000227A4B08980D99FDF787FE002856
:1043C00001D000F0AFFC002C03D0179B5A1E934184
:1043D000E41A00230E93109B9B4502D95A46D31A28
:1043E0000E9302233B40179306D0109B5A42534131
:1043F0000E9A5B421A400E920F9B002B07D0089832
:104400000D99149A169BFDF700FE08900D9100225D
:1044100000230B980C99FDF759FE002805D0802049
:10442000000684460D9961440D910D99089A0B0080
:104430000898FDF75EFE002801D000F0E2FC0122A2
:10444000404B524208980D99FDF740FE002801D0DC
:1044500000F075FC534B089A3B4004930E9B02946A
:1044600003930D9B49460092019350462A00434610
:10447000FFF782F90200109B002B00D170E1202091
:1044800007403B0059424B4100275B42511C1840FA
:104490000B91434649464530D0470F9A109BD117A0
:1044A000013B54180D93D20F20AB0E954C403D00AC
:1044B0000C9208930F961F0002E03500202E0DD0BD
:1044C00020000A21FDF754FB6E1C30317D19297044
:1044D00020000A21FDF74CFB041EEED105230693B4
:1044E0000D9B32000593002304930A3303930C9B26
:1044F00001920293089B0B9A00934946434650460B
:104500000E9D0F9EFEF7CEF9179B0200002B00D1E7
:1045100026E1431B9B4500D822E15C465746531CCD
:104520009A46494643462020B8475246531B9C4270
:10453000F5D8BA461500FFF7DAFB0E0045E4C04691
:10454000FFFFEF7FFFFFEFFF01FCFFFFFB799F50B5
:104550001344D33FB3C8608B288AC63F0000F03FA6
:104560000000F83F61436F63A787D23F71A37909C9
:104570004F930A400000E03F1655B5BBB16B0240B7
:10458000EF39FAFE422EE63F00002C4000002440A6
:1045900000001840FF0300002D431CEBE2361A3FD9
:1045A00080842E41FFF7FFFF102239009143113222
:1045B00011430A917A0500D4B6E420AB0021089398
:1045C000CAE4002801D100F0F6FB611E1A0053E492
:1045D00080231022DB003B400C920C2297430B9768
:1045E0003A00002B02D001239A430B9280270B9BA9
:1045F000BF001F40692800D11BE5642800D118E5E1
:10460000002F00D07CE280230B9A5B001A4013003D
:1046100094460A9A04320D92002B00D050E30B9B73
:104620005B0600D445E30A9B1878002807D10B9A53
:104630001023110099430B91520500D5BFE30B9B4A
:1046400061279B0600D5412720ABFFB20A950E9447
:104650000F9608930A3F65460C9C1E000AE0303313
:10466000DBB26A1C7355002800D111E2202A00D168
:104670000EE215002100FDF77BFACBB20929EED935
:10468000DB19DBB2EDE75B46012B00D8A7E36B1E1D
:104690009B4433005E469B4601E0250001344346BF
:1046A0002A00494620202700D047B442F5D15E4673
:1046B00002350A9B3A00187849464346D047089B82
:1046C0000A93FFF714FB20231F43FFF7A4FB0A9A6A
:1046D000B0781468F11CE343DB171C40131D0A93E8
:1046E0000236FFF750FB2C00BB0710D15B46032BB3
:1046F0000DD9EC1E23002A005B440893434649462B
:104700002020541CD047089B22009C42F6D1032352
:104710000893DC4B22000B932B003D001F00089BED
:104720000B98511C013B0C910893C05C49464346D1
:10473000D047089B0C9A002BF2D13B002F00E21CC3
:104740001D00BB070CD5531B9B4509D95F46541C64
:10475000434649462020D0472200631B9F42F6D89B
:104760001500FFF7C4FAC0239B00B0781F4303363F
:10477000FFF72BFB0B980C99FDF7A8FC002800D045
:10478000CCE07B0700D46BE2BF4B089304230C936F
:104790000B95BB071CD10C9B9B4500D82DE35A46BB
:1047A0005419E41A33002A004E46A94655469A4643
:1047B0000D97571C434631002020A8473A00BC42C1
:1047C000F7D15346AA464D46B1461E000B970D9FA2
:1047D000330056469A460B9A0C9C0D95089B013C5B
:1047E000551C185D49464346B0472A00002CF5D1B8
:1047F00053460B99B2468C461E000C9B0D9D63449C
:104800001A00BB07ACD5531B9B45A9D933005C46A6
:104810004E4657469946531C9A463100434620203F
:10482000B8475246531B9C42F5D84B46BA46B14650
:1048300015001E00FFF75BFAC023B0781F43033654
:10484000FFF7C3FA089B9B4501D8FFF760FB5A4668
:104850005419E41A33002A004E465746994601354A
:10486000434631002020B8472A00A542F7D14B46E5
:10487000BA46B1461E00FFF74AFB089A531C9345FF
:1048800000D8A8E25B465B199B1A08971F0033000B
:104890002A004E46A14654469A4601354346310009
:1048A0002020A0472A00BD42F7D15346A2464C46DD
:1048B000B1461E005B460133089F08930A9B187897
:1048C000002801D0FFF702FBFFF721FB0C233A0081
:1048D0009A4314331A430B927B0500D4C7E010238C
:1048E0000C9380E6109B5E469B460E9D0F9C0B9B97
:1048F000049406935B4605930C9B03930A9B0293D7
:10490000089B019200932A00434649465046FDF712
:10491000C9FF0D9B05000A93FFF7E9F90B95BB074B
:104920001BD15B46042B00D8B0E233002C1F2A00B9
:104930004E46A94655469A465C440897571C43463E
:1049400031002020A8473A00A742F7D15346AA4693
:104950004D46B1461E000B97089F4C4B042408930C
:1049600033004E46B94657469A460B9A0C95089B1B
:10497000013C551C185D31004346B8472A00002C05
:10498000F5D15346BA464F460B9AB1460C9D1E00D0
:104990000432BB0700D4E3E6531B9B4500D8DFE697
:1049A00033005C464E4657469946531C9A463100A2
:1049B00043462020B8475246531B9C42F5D834E763
:1049C00007220A9B07339343013294469C44624674
:1049D0005F680A921A68FB17189319931898199927
:1049E0000300534012930B007B4013939446129A9A
:1049F000139B121A8B41129213936246FB0F14936E
:104A00003A4307D10B9A1023110099430B91520599
:104A100000D5E7E10B9A6123920600D54123DBB272
:104A200020AA0A3B0E950F9410960027129C139D06
:104A300008920D930C9E0CE03032D2B2089C7B1C85
:104A4000E255020004000D000A433FD0202B3DD068
:104A50001F003200002320002900FDF7C7F8D2B262
:104A6000092AE9D90D9B9C466244D2B2E6E780232D
:104A70009B001F40F13BFF3B0C93C1E50A230C93C5
:104A8000B1E5C046E0630010EC630010E463001081
:104A90000A9D0E9C0F9E0B9B049406935B46059308
:104AA0000C9B039300232AE708230C938023DB004D
:104AB0003B40642800D090E53A000B97002B00D0D3
:104AC00091E58027BF001740FFF7B3FA12941395C2
:104AD000109E0F9C0E9D0B9A049406925A460592C6
:104AE0000C9A01930392149A0292089B2A00009355
:104AF000494643465046FDF7D5FE0500FFF7F7F857
:104B000007220A9B07339343013294469C44624632
:104B100003CB03000A920B4307D10B9A1033170003
:104B20009F430B97520500D563E10B9A61239206D0
:104B300000D54123DBB220AA0A3B0E950F94002733
:104B400008920D930C9C109615000CE03032D1B2F7
:104B5000E95518007A1C3100334300D185E0202A42
:104B600000D182E0170022000023FDF73FF8D2B207
:104B700003000E00092AE9D90D998C466244D1B28E
:104B8000E6E70E9B002B00D0C7E00D9B1491169317
:104B90000423109300230F931BE40A9B64195B1BEF
:104BA0000A9333002A004E46B94657469A4608E013
:104BB00043463100551CB8470A9B585D002862D017
:104BC0002A00A242F4D153461500BA464F46B146D8
:104BD0001E00FFF798F90B9B1B0600D4F7E00A9B19
:104BE00000229B5EFFF73DFA0A9B1B68DA179818B4
:104BF0005040DA0F0E92002B06D10B9A10331100A1
:104C000099430B9152051FD40B9A6123920600D54C
:104C10004123DBB220AA0A3B08920A9309E0303311
:104C2000DBB208997A1CCB55002810D0202A0ED070
:104C300017000C99FCF79CFFCBB20929EFD90A9A0F
:104C400094466344DBB2ECE7002220AB08930B9B55
:104C5000049406935B4605930C9B03930E9B4EE6D0
:104C60008D4B089303230C9392E50E9D0F9C109E91
:104C70000B9B049406935B4605930C9B0192039354
:104C80000023029331E75346BA464F46B1461E0011
:104C9000FFF739F98022120694460B9B08930C9B70
:104CA00063440D93FFF7A5FA250008E502230C9352
:104CB000FCE60B9B1B0600D498E00A9B1888B4E422
:104CC0000A9B1868002806D10B9A102311009943FB
:104CD0000B91520573D40B9A6123920600D54123A0
:104CE000DBB220AA0A3B08920A930BE03033DBB216
:104CF00008997A1CCB55002800D1CCE6202A00D197
:104D0000C9E617000C99FCF733FFCBB20929EDD99E
:104D10000A9A94466344DBB2EAE70D9B149116931A
:104D200000230F930F9B9C4257DDE41A013C802324
:104D3000DB001F43002310930F93FFF74AFB0B95F3
:104D4000BB070FD10E9B042B59D99C462A002C1F60
:104D50006444531C0B93494643462020D0470B9A8A
:104D60009442F6D104244D4B0B9A08930C97089B60
:104D7000013C571C185D49464346D0473A00002C79
:104D8000F5D10B9A179B0C9F0432002B01D1FFF732
:104D900072FB0E99531B8B4201D3FFF76CFB43460A
:104DA00049462020541CD0470E992200631B8B4299
:104DB000F5D3FFF760FB00230893FFF775F820ABEE
:104DC0000022089367E620AB002208938FE50A9B38
:104DD0001B68FFF746F9089372E50024A7E72F0048
:104DE000250066E420AA0023089274E60A9B18684E
:104DF0001BE420AB002208933AE70B95E8E40B95FF
:104E0000B0E72C00BB0710D10E9B032B0DD99C469D
:104E10002A00EC1E64440894434649462020541C52
:104E2000D047089B2200A342F6D1032308931C4BD2
:104E300022000B932B003D001F00089B0B98511C78
:104E4000013B0C910893C05C49464346D047089B00
:104E50000C9A002BF2D13B002F001D00179BE21C87
:104E6000002B01D1FFF707FB0E99531B8B4201D397
:104E7000FFF701FB434649462020541CD0470E99BA
:104E80002200631B8B42F5D3FFF7F5FA0B9564E51F
:104E9000063B17000C9309E6F4630010E46300106E
:104EA000E06300100EB4012210B585B007AC08CC49
:104EB00001000094524204480394FEF703FF05B03A
:104EC00010BC08BC03B018478D28001010B5094A63
:104ED00084B01468002C09D00122009103005242D2
:104EE00003A90548A047012004B010BD00F078F9DF
:104EF0000020F9E7A80C00209928001000BEFDE76B
:104F0000094A1368002B06D008491818884208D8A7
:104F1000106018007047064B044918181360884247
:104F2000F6D901235B42F4E7A40C00200000042022
:104F3000D40E002010B5FFF7E1FFC04670B5FCF7B6
:104F400017FD074C074DAC4209D20322231D033540
:104F5000ED1A9543ED1808CC9847AC42FBD170BDD3
:104F6000F45E0010F85E0010030010B508001B6826
:104F70001100984710BDC046F0B5C64600B5437D48
:104F800006000C001500002B06D10368110020005C
:104F9000984704BC9046F0BD002AFADD0A78037DEC
:104FA00000200A2A2CD00121012D1BD0184B984635
:104FB00002E03900BD4215D04B1EE25C635C4F1C21
:104FC0000A2BF6D10D2AF4D03368884203DA091A85
:104FD0002018984733680221404698473800390026
:104FE000BD42E9D1854203DD291A3368201898476C
:104FF0006419013C23780D3B5A4253413375C8E78D
:10500000002BD0D102480221336898470120CAE71B
:1050100048640010F0B5DE4657464E464546E0B5BA
:1050200085B015001C0007000E00FCF7F9F90023FD
:10503000304A12184B41002B02DA01222E4B524209
:105040002E4908008B4600F02FFF0190731C03D1FE
:10505000380000F0A1FD0600002C35D1284B984601
:10506000284B1C68002C21D0002D30D0264B9946AF
:1050700002ABDD1D0A239A460CE032003900200005
:10508000C04753460122290020002B70C0472469E5
:10509000002C0BD02368002BF9D04B461B68002B4B
:1050A000EBD0A342E9D02469002CF3D1019B002B63
:1050B00002D0584600F0E0FE300005B03CBC9046FF
:1050C0009946A246AB46F0BD104B9846C8E70E4D38
:1050D00006E0320039002000C0472469002CE5D0EA
:1050E0002368002BF9D02B68002BF2D0A342F4D117
:1050F000EFE7C04640420F00FFFFFF7F900A00200D
:10510000694F00109C0C0020A00C0020794F00106B
:105110000A4A1368002B05D10CE01A001B691032F3
:10512000002B07D09842F8D1002902D103691360FF
:10513000016170470029FCD01060FAE79C0C002048
:1051400010B500F02FF9012010BDC046F0B5CE46D5
:10515000474680B583B06B46DD1D06002870FCF71E
:105160005FF90023194A12184B41002B02DA012281
:10517000174B524217490800884600F095FE164B1F
:1051800081461C68002C14D0144F07E0012229002E
:105190002000FFF7F1FE2469002C0AD02368002BC1
:1051A000F9D03B68002BF1D0A342EFD02469002C4A
:1051B000F4D14B46002B02D0404600F05DFE30009B
:1051C00003B00CBC90469946F0BDC04640420F006B
:1051D000FFFFFF7F900A00209C0C0020A00C002005
:1051E00070B5040000F0D8FC012301000500012285
:1051F0002000FFF70FFF084B1C68002C06D06368E7
:10520000002B05D098472469002CF8D1280070BDE8
:105210002469002CF3D1F9E79C0C0020F0B500299B
:1052200015DD0E4B0D271A680D4B4118D3185C4243
:1052300063410C4C5B001E5F20240578AE4207D012
:1052400093691C42FCD1013015608842F5D1F0BD54
:1052500093691C42FCD11760F2E7C046C40C0020E1
:105260000080FCBFCC0C002030B5002923DD1B4B97
:105270001A689369DB061ED4050010240020013053
:1052800093691C42FCD113682B70814203D093694F
:1052900001351C42F3D0124B1B68002B08D0502361
:1052A0009363516B183B0B400E498C46624413606C
:1052B00000280FD030BD0A4B1B68002B0AD05022AB
:1052C000064B1B689A63596B183A0A4005498C468D
:1052D00063441A6003204042ECE7C046C40C00203F
:1052E000680C002034100000064B10B51B68002B22
:1052F00006D00021044A12689163044A1068984756
:1053000010BDC046680C0020C40C00206C0C0020AE
:105310000822034B19688B691A42FCD17047C046BA
:10532000C40C0020F8B5194F194A3B6805009818BD
:1053300042425041174E143004003268002D02D012
:10534000002A0ED0F8BD002AFCD09D630021FBF797
:10535000EFFA11492000FBF727FB104B35601D6069
:10536000F0E70E4B356019600B49FBF7F3FA0121AA
:105370002000FBF7DDFA50223B689A63596B183A1C
:105380000A4007498C4663441A60DBE7C40C0020DE
:105390000080FCBF680C0020E95200106C0C00205B
:1053A000341000000D4B10B51B780D4B0D4C1B78C5
:1053B0000D4B02211B780D4B00202360FBF7FEF9FB
:1053C00002210120FBF7FAF9E12120684902FCF7EC
:1053D00073F801210648FFF79BFE10BDB46500106D
:1053E000B8650010C40C0020BC65001000400340EC
:1053F00030020020384AF0B5821A531E9A415342B7
:1054000008224F46D646464604001A40334B08321F
:10541000C0B51A60324B0F0032491A6010000B6899
:105420009843031EFAD166212268FF312071D066AD
:10543000116063398833FF39D0639063D150052000
:10544000FCF7EEF90500780839004019FCF790FBED
:10545000430098468044060005214046FCF788FB3F
:10546000331A9A46204B8146680040199F422ED835
:105470001E49FCF77DFB471C002304222468012001
:10548000E36623685A400623134080225201A21883
:1054900013605346E3614B4623620F2B03D950211F
:1054A0004046FCF765FBA023E050E06F104B7840CE
:1054B0000004E318000C1860012331002800E366A3
:1054C000FCF756FB1CBC90469946A246F0BD094924
:1054D000FCF74EFB471CCFE74802002000E00040ED
:1054E00000F0004008C000403F420F008096980046
:1054F0007C10000040787D01F0B5DE464E46454602
:105500005746E0B583B091461A000CAB1B7804688F
:105510009B460023E366013361608046E366002A10
:105520004EDD531E9C46594601234B405B020193BE
:105530008023002010279A4666464D460021894662
:10554000002836D000218C46B0423BD04B46295C27
:105550001943634619432161616B0F42FCD05346E6
:10556000E3589C46002B0ED1B0422ED0013082422F
:10557000E4D143465A461A7103B03CBC9046994662
:10558000A246AB46F0BD01239946616D8023616B55
:105590009B001942FAD04B46216E002BE6D065469F
:1055A000002D03D0EB0701D42B07E2D401204042A9
:1055B000DFE7434619794B1E99418B029946C1E7B3
:1055C0000020D6E7019B9C46C0E75B46002BCDD16F
:1055D000D946DBE710B5034B0100186800F00EF860
:1055E00010BDC0465002002010B5034B01001868E2
:1055F00000F054FB10BDC04650020020F0B55746E5
:105600004546DE464E46E0B50D000B3583B007003B
:10561000162D28D8102900D9C1E000F0A7FA1025CE
:1056200018230220CE4EF3181A005C68083A944200
:1056300000D160E1032362689A431300E268A16825
:10564000CA6091600122E318596838000A435A6021
:1056500000F08EFA2000083003B03CBC904699461A
:10566000A246AB46F0BD07239D4300D597E0A94273
:1056700000D994E000F07AFAF823FF339D4200D875
:105680005EE1680A00D18EE0042800D939E13823B0
:105690009846A80980443930C100B14E71180839C4
:1056A000CC68A14218D0032362689A431300521BAE
:1056B0000F2A00DD1DE1002AC0DA03239C4608E022
:1056C0006246636893435A1B0F2A00DD11E1002AEA
:1056D000B4DAE468A142F3D132003469083294426A
:1056E00067D00323616899438A460B00491B0F2941
:1056F00000DD12E1726132610029A3DA994A924514
:1057000000D948E1DB08FF3A9910FF3A8A40DB00F4
:1057100071689B190A4399687260E360A1609C609C
:10572000CC60012183109940914248D80A4205D1AA
:1057300003239843490004300A42FBD003239846D0
:10574000C3009946B144CC4682466346DC68A44512
:1057500007D1F9E0002A00DB0EE1E468A44500D19E
:10576000F2E04246636893435A1B0F2AF2DD0120A0
:105770008046611905436560A068E5680836C56024
:10578000A8604046F160B16010434860CE608E6012
:105790003800E25000F0ECF9200008305CE70C2300
:1057A00000203B6058E780213F2389004020984635
:1057B00073E701217268831099409142B6D903239F
:1057C000B46862689A439046AA4203D3531B0F2BD6
:1057D00000DD80E0644B654A9A4693461B68126878
:1057E000EB18013200D138E1614A944663441B0B47
:1057F0001B0300930099380000F0BCF903008146B8
:10580000013300D1F6E04346E218824200D9EFE0CE
:1058100051464968009B8C46514663444B60824226
:1058200000D14BE159460968013100D15DE149469B
:105830008A1AD3185246536007234A461A400192E7
:1058400000D120E108214B4689469B1A99440099D2
:10585000484B49449B1A5B1A1B051B0D00913800ED
:1058600019009B4600F086F9431C00D15AE15346CB
:1058700052465B6849465B4453604A46B260801AB0
:105880000122584410434860B44211D041460F29C8
:1058900000D827E107200C398143606802400520C9
:1058A0000A4362606218506090600F2900D941E19C
:1058B0005246D26A934201D95246D3620322B46857
:1058C000616891430A005146096B8B4200D895E00C
:1058D00051460B6392E001222900134311436519DD
:1058E00061603800B5606B6000F042F9200008305C
:1058F000B2E64046F0E6DC680230A34200D1EBE6B7
:1059000098E614286ED9542800D9A9E06E23984649
:10591000280B80446F30C100BFE6012360191D438E
:10592000656070613061C26082601A0053460A434C
:1059300042603800E15000F01BF9200008308BE68F
:105940002B00E80808336DE608239B46073BDC4440
:105950009B46DA4443465246134200D0F5E667E0E0
:1059600088060020FF010000340C00208006002083
:105970000F100000081000000122E31859683800D9
:105980000A435A60E368A268D3609A6000F0F0F8B6
:105990002000083060E65A0A042A3AD9142A00D9AD
:1059A00083E05B23984690445C32D20008235B423C
:1059B0009C46B218944463469968032399468C45E3
:1059C00059D04B464A689A43524502D989688C455A
:1059D000F7D1CB6872689C466346A160E3609C6027
:1059E000CC609EE65B23984680445C30C10054E660
:1059F000B4427ED00323B46862689A43531B954235
:105A000002D80F2B00DD66E7380000F0B1F8002067
:105A100022E69A093823984690443932D200C5E7E5
:105A20004B461A68083B013891469A4200D098E0EC
:105A300043460342F4D173688B4373604900994233
:105A400000D9BCE6002904D1B9E6042294464900F5
:105A5000E2440B42F9D0504672E610330093C9E697
:105A6000AA235B00984233D8DD3B9846E80B80447C
:105A70007830C10011E6434601229B109A407368BA
:105A80001A437260A8E7009B38004B4400931B0543
:105A90005B421B0D19009B4600F06CF8431C00D0C4
:105AA000E5E6002300989B46E1E6542A29D81A0B24
:105AB0006E23984690446F32D20077E7110500D0EC
:105AC000B0E60120009AB168424402434A60EFE622
:105AD000254B984220D87C239846A80C80447D30E2
